{
  "contractName": "hello_ganache",
  "abi": [
    {
      "inputs": [
        {
          "internalType": "int256",
          "name": "_age",
          "type": "int256"
        },
        {
          "internalType": "string",
          "name": "_name",
          "type": "string"
        },
        {
          "internalType": "bool",
          "name": "_student",
          "type": "bool"
        }
      ],
      "name": "setuserinfo",
      "outputs": [],
      "stateMutability": "nonpayable",
      "type": "function"
    }
  ],
  "bytecode": "0x608060405234801561001057600080fd5b506102e3806100206000396000f3fe608060405234801561001057600080fd5b506004361061002b5760003560e01c806314b3bbd314610030575b600080fd5b61004a6004803603810190610045919061019c565b61004c565b005b83600081905550828260019190610064929190610085565b5080600260006101000a81548160ff02191690831515021790555050505050565b8280546100919061021e565b90600052602060002090601f0160209004810192826100b357600085556100fa565b82601f106100cc57803560ff19168380011785556100fa565b828001600101855582156100fa579182015b828111156100f95782358255916020019190600101906100de565b5b509050610107919061010b565b5090565b5b8082111561012457600081600090555060010161010c565b5090565b6000813590506101378161027f565b92915050565b60008135905061014c81610296565b92915050565b60008083601f84011261016457600080fd5b8235905067ffffffffffffffff81111561017d57600080fd5b60208301915083600182028301111561019557600080fd5b9250929050565b600080600080606085870312156101b257600080fd5b60006101c08782880161013d565b945050602085013567ffffffffffffffff8111156101dd57600080fd5b6101e987828801610152565b935093505060406101fc87828801610128565b91505092959194509250565b60008115159050919050565b6000819050919050565b6000600282049050600182168061023657607f821691505b6020821081141561024a57610249610250565b5b50919050565b7f4e487b7100000000000000000000000000000000000000000000000000000000600052602260045260246000fd5b61028881610208565b811461029357600080fd5b50565b61029f81610214565b81146102aa57600080fd5b5056fea2646970667358221220e97e46f153a28dfc4a00d5621e85cae465694494239ee52f03f55124679ae85a64736f6c63430008010033",
  "immutableReferences": {},
  "source": "// SPDX-License-Identifier: MIT\r\npragma solidity >=0.4.22 <0.9.0;\r\n\r\ncontract hello_ganache {\r\n\r\n    int private age;\r\n    string private name;\r\n    bool private is_student;\r\n    address private owner;\r\n\r\n    function setuserinfo (int _age, string calldata _name, bool _student) public\r\n    {\r\n        age = _age;\r\n        name = _name;\r\n        is_student= _student;\r\n        \r\n    }\r\n\r\n}",
  "sourcePath": "C:/Users/abcd/Documents/GitHub/solidity/ganachetest/contracts/hello_ganache.sol",
  "compiler": {
    "name": "solc",
    "version": "0.8.1+commit.df193b15.Emscripten.clang"
  },
  "schemaVersion": "3.4.1",
  "updatedAt": "2021-09-27T18:17:46.042Z",
  "devdoc": {
    "kind": "dev",
    "methods": {},
    "version": 1
  },
  "userdoc": {
    "kind": "user",
    "methods": {},
    "version": 1
  }
}