{
  "contractName": "hello_ganache",
  "abi": [
    {
      "inputs": [
        {
          "internalType": "int256",
          "name": "_age",
          "type": "int256"
        },
        {
          "internalType": "string",
          "name": "_name",
          "type": "string"
        },
        {
          "internalType": "bool",
          "name": "_student",
          "type": "bool"
        }
      ],
      "name": "setuserinfo",
      "outputs": [],
      "stateMutability": "nonpayable",
      "type": "function"
    },
    {
      "inputs": [],
      "name": "getuserinfo",
      "outputs": [
        {
          "internalType": "int256",
          "name": "",
          "type": "int256"
        },
        {
          "internalType": "string",
          "name": "",
          "type": "string"
        },
        {
          "internalType": "bool",
          "name": "",
          "type": "bool"
        }
      ],
      "stateMutability": "view",
      "type": "function"
    }
  ],
  "bytecode": "0x608060405234801561001057600080fd5b506104b4806100206000396000f3fe608060405234801561001057600080fd5b50600436106100365760003560e01c806314b3bbd31461003b578063d0479e2f14610057575b600080fd5b61005560048036038101906100509190610278565b610077565b005b61005f6100b0565b60405161006e9392919061033b565b60405180910390f35b8360008190555082826001919061008f929190610161565b5080600260006101000a81548160ff02191690831515021790555050505050565b60006060600080546001600260009054906101000a900460ff168180546100d6906103de565b80601f0160208091040260200160405190810160405280929190818152602001828054610102906103de565b801561014f5780601f106101245761010080835404028352916020019161014f565b820191906000526020600020905b81548152906001019060200180831161013257829003601f168201915b50505050509150925092509250909192565b82805461016d906103de565b90600052602060002090601f01602090048101928261018f57600085556101d6565b82601f106101a857803560ff19168380011785556101d6565b828001600101855582156101d6579182015b828111156101d55782358255916020019190600101906101ba565b5b5090506101e391906101e7565b5090565b5b808211156102005760008160009055506001016101e8565b5090565b60008135905061021381610450565b92915050565b60008135905061022881610467565b92915050565b60008083601f84011261024057600080fd5b8235905067ffffffffffffffff81111561025957600080fd5b60208301915083600182028301111561027157600080fd5b9250929050565b6000806000806060858703121561028e57600080fd5b600061029c87828801610219565b945050602085013567ffffffffffffffff8111156102b957600080fd5b6102c58782880161022e565b935093505060406102d887828801610204565b91505092959194509250565b6102ed81610395565b82525050565b6102fc816103a1565b82525050565b600061030d82610379565b6103178185610384565b93506103278185602086016103ab565b6103308161043f565b840191505092915050565b600060608201905061035060008301866102f3565b81810360208301526103628185610302565b905061037160408301846102e4565b949350505050565b600081519050919050565b600082825260208201905092915050565b60008115159050919050565b6000819050919050565b60005b838110156103c95780820151818401526020810190506103ae565b838111156103d8576000848401525b50505050565b600060028204905060018216806103f657607f821691505b6020821081141561040a57610409610410565b5b50919050565b7f4e487b7100000000000000000000000000000000000000000000000000000000600052602260045260246000fd5b6000601f19601f8301169050919050565b61045981610395565b811461046457600080fd5b50565b610470816103a1565b811461047b57600080fd5b5056fea26469706673582212203c5c4581442aabbc42889db2c6cd580c518a7d8f013b6c1021e25b6b65ac89e264736f6c63430008010033",
  "immutableReferences": {},
  "source": "// SPDX-License-Identifier: MIT\r\npragma solidity >=0.4.22 <0.9.0;\r\n\r\ncontract hello_ganache {\r\n    int private age;\r\n    string private name;\r\n    bool private is_student;\r\n    address private owner;\r\n\r\n\r\n        function setuserinfo (int _age, string calldata _name,bool _student) public {\r\n            age= _age;\r\n            name=_name;\r\n            is_student= _student;\r\n        } \r\n\r\n        function getuserinfo () public view returns (int,string memory,bool) {\r\n            return (age, name, is_student);\r\n        }\r\n}",
  "sourcePath": "C:/working/ganache_test/contracts/Hello_ganache.sol",
  "compiler": {
    "name": "solc",
    "version": "0.8.1+commit.df193b15.Emscripten.clang"
  },
  "schemaVersion": "3.4.1",
  "updatedAt": "2021-08-07T23:04:18.017Z",
  "devdoc": {
    "kind": "dev",
    "methods": {},
    "version": 1
  },
  "userdoc": {
    "kind": "user",
    "methods": {},
    "version": 1
  }
}