{
  "contractName": "studentusama",
  "abi": [
    {
      "constant": false,
      "inputs": [
        {
          "internalType": "int256",
          "name": "_age",
          "type": "int256"
        },
        {
          "internalType": "int256",
          "name": "_cnic",
          "type": "int256"
        },
        {
          "internalType": "string",
          "name": "_name",
          "type": "string"
        },
        {
          "internalType": "int256",
          "name": "_dob",
          "type": "int256"
        }
      ],
      "name": "setuserinfo",
      "outputs": [],
      "payable": false,
      "stateMutability": "nonpayable",
      "type": "function"
    },
    {
      "constant": true,
      "inputs": [],
      "name": "getuserinfo",
      "outputs": [
        {
          "internalType": "int256",
          "name": "",
          "type": "int256"
        },
        {
          "internalType": "int256",
          "name": "",
          "type": "int256"
        },
        {
          "internalType": "string",
          "name": "",
          "type": "string"
        },
        {
          "internalType": "int256",
          "name": "",
          "type": "int256"
        }
      ],
      "payable": false,
      "stateMutability": "view",
      "type": "function"
    }
  ],
  "bytecode": "0x608060405234801561001057600080fd5b50610373806100206000396000f3fe608060405234801561001057600080fd5b50600436106100365760003560e01c8063ab36ae9f1461003b578063d0479e2f14610114575b600080fd5b6101126004803603608081101561005157600080fd5b8101908080359060200190929190803590602001909291908035906020019064010000000081111561008257600080fd5b82018360208201111561009457600080fd5b803590602001918460018302840111640100000000831117156100b657600080fd5b91908080601f016020809104026020016040519081016040528093929190818152602001838380828437600081840152601f19601f820116905080830192505050505050509192919290803590602001909291905050506101ac565b005b61011c6101de565b6040518085815260200184815260200180602001838152602001828103825284818151815260200191508051906020019080838360005b8381101561016e578082015181840152602081019050610153565b50505050905090810190601f16801561019b5780820380516001836020036101000a031916815260200191505b509550505050505060405180910390f35b826000819055508360018190555081600290805190602001906101d0929190610299565b508060038190555050505050565b6000806060600080546001546002600354818054600181600116156101000203166002900480601f0160208091040260200160405190810160405280929190818152602001828054600181600116156101000203166002900480156102845780601f1061025957610100808354040283529160200191610284565b820191906000526020600020905b81548152906001019060200180831161026757829003601f168201915b50505050509150935093509350935090919293565b828054600181600116156101000203166002900490600052602060002090601f016020900481019282601f106102da57805160ff1916838001178555610308565b82800160010185558215610308579182015b828111156103075782518255916020019190600101906102ec565b5b5090506103159190610319565b5090565b61033b91905b8082111561033757600081600090555060010161031f565b5090565b9056fea265627a7a72315820773d9d6fe85654b10e0e4317af2fe3616b88893af53b82dd7223f856fb7798aa64736f6c63430005100032",
  "source": "// SPDX-License-Identifier: MIT\r\npragma solidity >=0.4.22 <0.9.0;\r\n\r\ncontract studentusama {\r\n\r\n    int private cnic;\r\n    int private age;\r\n    string private name;\r\n    int private dob;\r\n\r\n    function setuserinfo (int _age, int _cnic ,string memory _name, int _dob) public\r\n    {\r\n        cnic=_cnic;\r\n        age =_age;\r\n        name =_name;\r\n        dob=_dob;\r\n\r\n    }\r\n\r\n    function getuserinfo() public view returns (int ,int, string memory, int)\r\n    {\r\n        return (cnic,age, name,dob);\r\n    }\r\n}",
  "sourcePath": "C:/Users/abcd/Documents/GitHub/solidity/studentusama/contracts/studentusama.sol",
  "compiler": {
    "name": "solc",
    "version": "0.5.16+commit.9c3226ce.Emscripten.clang"
  },
  "schemaVersion": "3.4.1",
  "updatedAt": "2021-09-27T21:03:47.500Z",
  "networkType": "ethereum",
  "devdoc": {
    "methods": {}
  },
  "userdoc": {
    "methods": {}
  }
}